:020000040000FA
:020000000328D3
:040002000034003492
:0A000600512029200E201E209F1417
:100010009F1808281E08A0005620052808108810E0
:1000200021181428881416280814162818200800E7
:10003000211C1C28211008002114080000000000C9
:1000400000000000000000000000000000000000B0
:10005000080083160313850185098601870188013D
:100060008901831603178801880989018312031304
:10007000850186018701880108008316031300307B
:100080009F008312031301309F0008140800831699
:10009000031300309F008312031301309F00881464
:1000A000080083160313C1308F0008002008592070
:1000B00087008207C034F934A434B03499349234C0
:0800C0008234F83480349034DE
:02400E00D420BC
:02401000FF3F70
:00000001FF
