:020000040000FA
:020000001628C0
:040002000034003492
:08000800A200030EA3000B1D72
:1000100011280B11D93081007C20851711288513F8
:0C0020001128230E8300A20E220E0900FE
:04002C0047202C201D
:100030003E204C2064209F149F181C280C131E087F
:10004000A0006F207C208C1E27281A08A100200801
:1000500099000C1E29281A28831603138501850987
:100060008601870188018316031788018809831296
:100070000313850186018701880108008316031395
:1000800080309F008312031341309F0008008316C5
:10009000031361308F00080083160313181218151C
:1000A00083160317871583160313053099009A01E9
:1000B0008312031398171813181683160313981630
:1000C00083120313880108000000000000000000F4
:1000D00000000000000000000000000008002008F0
:1000E000A700200EA8002708A6000F39A4002808A2
:1000F000A6000F39A50008008601291884282408C5
:1001000091208800061489282508912088008614EB
:1001100089288B200800291C8F2829100800291401
:1001200008008207C034F934A434B03499349234CE
:080130008234F834803490346D
:02400E00D420BC
:02401000FF3F70
:00000001FF
