:020000040000FA
:020000001628C0
:040002000034003492
:08000800A100030EA2000B1D74
:1000100011280B11D93081005A208517112885131A
:0C0020001128220E8300A10E210E090001
:04002C003D20222031
:10003000342042209F149F181B281E08A0004D202A
:100040005A20192883160313850185098601870123
:100050008801831603178801880983120313850119
:1000600086018701880108008316031380309F00F2
:100070008312031341309F0008008316031361307D
:100080008F000800000000000000000000000000D9
:10009000000000000000000008002008A600200E5C
:1000A000A7002608A5000F39A3002708A5000F39CF
:1000B000A400080088012818622823086F20870000
:1000C0000814672824086F2087008814672869208F
:1000D0000800281C6D282810080028140800820732
:1000E000C034F934A434B034993492348234F834BE
:0400F0008034903494
:02400E00D420BC
:02401000FF3F70
:00000001FF
