:020000040000FA
:020000001628C0
:040002000034003492
:08000800A200030EA3000B1D72
:1000100011280B11D93081007B20851711288513F9
:0C0020001128230E8300A20E220E0900FE
:04002C0046202B201F
:100030003D204B2063209F149F181C281E08A00001
:100040006E207B208C1E26281A08A100200899000B
:100050000C1E28281A28831603138501850986019A
:100060008701880183160317880188098312031307
:1000700085018601870188010800831603138030FB
:100080009F008312031341309F000800831603135F
:1000900061308F0008008316031318121815831699
:1000A0000317871583160313193099009A018312D9
:1000B0000313981718131816831603139816831230
:1000C0000313880108000000000000000000000089
:1000D0000000000000000000000008002008A70049
:1000E000200EA8002708A6000F39A4002808A600A3
:1000F0000F39A500080086012918832824089020BC
:1001000088000614882825089020880086148828EE
:100110008A200800291C8E282910080029140800AC
:100120008207C034F934A434B03499349234823420
:06013000F8348034903425
:02400E00D420BC
:02401000FF3F70
:00000001FF
